{
  "_format": "hh-sol-artifact-1",
  "contractName": "MessageWall",
  "sourceName": "contracts/MessageWall.sol",
  "abi": [
    {
      "inputs": [],
      "stateMutability": "payable",
      "type": "constructor"
    },
    {
      "anonymous": false,
      "inputs": [
        {
          "indexed": false,
          "internalType": "string",
          "name": "message",
          "type": "string"
        },
        {
          "indexed": true,
          "internalType": "address",
          "name": "from",
          "type": "address"
        },
        {
          "indexed": false,
          "internalType": "uint256",
          "name": "timestamp",
          "type": "uint256"
        }
      ],
      "name": "NewMessage",
      "type": "event"
    },
    {
      "inputs": [],
      "name": "getMessages",
      "outputs": [
        {
          "components": [
            {
              "internalType": "string",
              "name": "message",
              "type": "string"
            },
            {
              "internalType": "address",
              "name": "sender",
              "type": "address"
            },
            {
              "internalType": "uint256",
              "name": "timestamp",
              "type": "uint256"
            }
          ],
          "internalType": "struct MessageWall.Message[]",
          "name": "",
          "type": "tuple[]"
        }
      ],
      "stateMutability": "view",
      "type": "function"
    },
    {
      "inputs": [],
      "name": "getTotalMessageCount",
      "outputs": [
        {
          "internalType": "uint256",
          "name": "",
          "type": "uint256"
        }
      ],
      "stateMutability": "view",
      "type": "function"
    },
    {
      "inputs": [
        {
          "internalType": "address",
          "name": "",
          "type": "address"
        }
      ],
      "name": "lastMessagedAt",
      "outputs": [
        {
          "internalType": "uint256",
          "name": "",
          "type": "uint256"
        }
      ],
      "stateMutability": "view",
      "type": "function"
    },
    {
      "inputs": [
        {
          "internalType": "string",
          "name": "_message",
          "type": "string"
        }
      ],
      "name": "setMessage",
      "outputs": [],
      "stateMutability": "nonpayable",
      "type": "function"
    }
  ],
  "bytecode": "0x6080604052606444426200001491906200002c565b62000020919062000093565b60018190555062000129565b6000620000398262000089565b9150620000468362000089565b9250827fffffffffffffffffffffffffffffffffffffffffffffffffffffffffffffffff038211156200007e576200007d620000cb565b5b828201905092915050565b6000819050919050565b6000620000a08262000089565b9150620000ad8362000089565b925082620000c057620000bf620000fa565b5b828206905092915050565b7f4e487b7100000000000000000000000000000000000000000000000000000000600052601160045260246000fd5b7f4e487b7100000000000000000000000000000000000000000000000000000000600052601260045260246000fd5b61102b80620001396000396000f3fe608060405234801561001057600080fd5b506004361061004c5760003560e01c80632ff4e6e414610051578063368b8772146100815780635ff6cbf31461009d578063b021352a146100bb575b600080fd5b61006b60048036038101906100669190610889565b6100d9565b6040516100789190610bfd565b60405180910390f35b61009b600480360381019061009691906108b2565b6100f1565b005b6100a56104ae565b6040516100b29190610b1b565b60405180910390f35b6100c36105ff565b6040516100d09190610bfd565b60405180910390f35b60026020528060005260406000206000915090505481565b4261012c600260003373ffffffffffffffffffffffffffffffffffffffff1673ffffffffffffffffffffffffffffffffffffffff1681526020019081526020016000205461013f9190610cdf565b1061017f576040517f08c379a000000000000000000000000000000000000000000000000000000000815260040161017690610bdd565b60405180910390fd5b42600260003373ffffffffffffffffffffffffffffffffffffffff1673ffffffffffffffffffffffffffffffffffffffff1681526020019081526020016000208190555060016000808282546101d59190610cdf565b92505081905550600360405180606001604052808381526020013373ffffffffffffffffffffffffffffffffffffffff1681526020014281525090806001815401808255809150506001900390600052602060002090600302016000909190919091506000820151816000019080519060200190610254929190610769565b5060208201518160010160006101000a81548173ffffffffffffffffffffffffffffffffffffffff021916908373ffffffffffffffffffffffffffffffffffffffff160217905550604082015181600201555050606460015442446102b99190610cdf565b6102c39190610cdf565b6102cd9190610e16565b6001819055506103146040518060400160405280600f81526020017f25642052616e646f6d2056616c75650000000000000000000000000000000000815250600154610608565b6032600154111561045b5761035e6040518060400160405280600781526020017f257320776f6e2100000000000000000000000000000000000000000000000000815250336106a4565b6000655af3107a40009050478111156103ac576040517f08c379a00000000000000000000000000000000000000000000000000000000081526004016103a390610b9d565b60405180910390fd5b60003373ffffffffffffffffffffffffffffffffffffffff16826040516103d290610b06565b60006040518083038185875af1925050503d806000811461040f576040519150601f19603f3d011682016040523d82523d6000602084013e610414565b606091505b5050905080610458576040517f08c379a000000000000000000000000000000000000000000000000000000000815260040161044f90610bbd565b60405180910390fd5b50505b3373ffffffffffffffffffffffffffffffffffffffff167f49303895b9b1b8f35dced9a20ab5e7df8cf77377cae196e7bd0e4a3f4543ef8682426040516104a3929190610b6d565b60405180910390a250565b60606003805480602002602001604051908101604052809291908181526020016000905b828210156105f6578382906000526020600020906003020160405180606001604052908160008201805461050590610db3565b80601f016020809104026020016040519081016040528092919081815260200182805461053190610db3565b801561057e5780601f106105535761010080835404028352916020019161057e565b820191906000526020600020905b81548152906001019060200180831161056157829003601f168201915b505050505081526020016001820160009054906101000a900473ffffffffffffffffffffffffffffffffffffffff1673ffffffffffffffffffffffffffffffffffffffff1673ffffffffffffffffffffffffffffffffffffffff168152602001600282015481525050815260200190600101906104d2565b50505050905090565b60008054905090565b6106a0828260405160240161061e929190610b6d565b6040516020818303038152906040527f9710a9d0000000000000000000000000000000000000000000000000000000007bffffffffffffffffffffffffffffffffffffffffffffffffffffffff19166020820180517bffffffffffffffffffffffffffffffffffffffffffffffffffffffff8381831617835250505050610740565b5050565b61073c82826040516024016106ba929190610b3d565b6040516020818303038152906040527f319af333000000000000000000000000000000000000000000000000000000007bffffffffffffffffffffffffffffffffffffffffffffffffffffffff19166020820180517bffffffffffffffffffffffffffffffffffffffffffffffffffffffff8381831617835250505050610740565b5050565b60008151905060006a636f6e736f6c652e6c6f679050602083016000808483855afa5050505050565b82805461077590610db3565b90600052602060002090601f01602090048101928261079757600085556107de565b82601f106107b057805160ff19168380011785556107de565b828001600101855582156107de579182015b828111156107dd5782518255916020019190600101906107c2565b5b5090506107eb91906107ef565b5090565b5b808211156108085760008160009055506001016107f0565b5090565b600061081f61081a84610c3d565b610c18565b90508281526020810184848401111561083757600080fd5b610842848285610d71565b509392505050565b60008135905061085981610fde565b92915050565b600082601f83011261087057600080fd5b813561088084826020860161080c565b91505092915050565b60006020828403121561089b57600080fd5b60006108a98482850161084a565b91505092915050565b6000602082840312156108c457600080fd5b600082013567ffffffffffffffff8111156108de57600080fd5b6108ea8482850161085f565b91505092915050565b60006108ff8383610a98565b905092915050565b61091081610d35565b82525050565b61091f81610d35565b82525050565b600061093082610c7e565b61093a8185610ca1565b93508360208202850161094c85610c6e565b8060005b85811015610988578484038952815161096985826108f3565b945061097483610c94565b925060208a01995050600181019050610950565b50829750879550505050505092915050565b60006109a582610c89565b6109af8185610cbd565b93506109bf818560208601610d80565b6109c881610f03565b840191505092915050565b60006109de82610c89565b6109e88185610cce565b93506109f8818560208601610d80565b610a0181610f03565b840191505092915050565b6000610a19603483610cce565b9150610a2482610f14565b604082019050919050565b6000610a3c602783610cce565b9150610a4782610f63565b604082019050919050565b6000610a5f601583610cce565b9150610a6a82610fb2565b602082019050919050565b6000610a82600083610cb2565b9150610a8d82610fdb565b600082019050919050565b60006060830160008301518482036000860152610ab5828261099a565b9150506020830151610aca6020860182610907565b506040830151610add6040860182610ae8565b508091505092915050565b610af181610d67565b82525050565b610b0081610d67565b82525050565b6000610b1182610a75565b9150819050919050565b60006020820190508181036000830152610b358184610925565b905092915050565b60006040820190508181036000830152610b5781856109d3565b9050610b666020830184610916565b9392505050565b60006040820190508181036000830152610b8781856109d3565b9050610b966020830184610af7565b9392505050565b60006020820190508181036000830152610bb681610a0c565b9050919050565b60006020820190508181036000830152610bd681610a2f565b9050919050565b60006020820190508181036000830152610bf681610a52565b9050919050565b6000602082019050610c126000830184610af7565b92915050565b6000610c22610c33565b9050610c2e8282610de5565b919050565b6000604051905090565b600067ffffffffffffffff821115610c5857610c57610ed4565b5b610c6182610f03565b9050602081019050919050565b6000819050602082019050919050565b600081519050919050565b600081519050919050565b6000602082019050919050565b600082825260208201905092915050565b600081905092915050565b600082825260208201905092915050565b600082825260208201905092915050565b6000610cea82610d67565b9150610cf583610d67565b9250827fffffffffffffffffffffffffffffffffffffffffffffffffffffffffffffffff03821115610d2a57610d29610e47565b5b828201905092915050565b6000610d4082610d47565b9050919050565b600073ffffffffffffffffffffffffffffffffffffffff82169050919050565b6000819050919050565b82818337600083830152505050565b60005b83811015610d9e578082015181840152602081019050610d83565b83811115610dad576000848401525b50505050565b60006002820490506001821680610dcb57607f821691505b60208210811415610ddf57610dde610ea5565b5b50919050565b610dee82610f03565b810181811067ffffffffffffffff82111715610e0d57610e0c610ed4565b5b80604052505050565b6000610e2182610d67565b9150610e2c83610d67565b925082610e3c57610e3b610e76565b5b828206905092915050565b7f4e487b7100000000000000000000000000000000000000000000000000000000600052601160045260246000fd5b7f4e487b7100000000000000000000000000000000000000000000000000000000600052601260045260246000fd5b7f4e487b7100000000000000000000000000000000000000000000000000000000600052602260045260246000fd5b7f4e487b7100000000000000000000000000000000000000000000000000000000600052604160045260246000fd5b6000601f19601f8301169050919050565b7f547279696e6720746f207769746864726177206d6f7265206d6f6e657920746860008201527f616e2074686520636f6e7472616374206861732e000000000000000000000000602082015250565b7f4661696c656420746f207769746864726177206d6f6e65792066726f6d20636f60008201527f6e74726163742e00000000000000000000000000000000000000000000000000602082015250565b7f52617465204c696d69742835206d696e75746573290000000000000000000000600082015250565b50565b610fe781610d35565b8114610ff257600080fd5b5056fea2646970667358221220a62bf13e6d08b209352ca87e8fddb09a808857637df65840a18f1861d66d721864736f6c63430008040033",
  "linkReferences": {},
  "deployedLinkReferences": {}
}